{
  "contractName": "Dog",
  "abi": [
    {
      "inputs": [
        {
          "internalType": "string",
          "name": "name",
          "type": "string"
        }
      ],
      "stateMutability": "nonpayable",
      "type": "constructor"
    },
    {
      "inputs": [
        {
          "internalType": "string",
          "name": "food",
          "type": "string"
        }
      ],
      "name": "eat",
      "outputs": [
        {
          "internalType": "string",
          "name": "",
          "type": "string"
        }
      ],
      "stateMutability": "view",
      "type": "function",
      "constant": true
    },
    {
      "inputs": [],
      "name": "getName",
      "outputs": [
        {
          "internalType": "string",
          "name": "",
          "type": "string"
        }
      ],
      "stateMutability": "view",
      "type": "function",
      "constant": true
    },
    {
      "inputs": [],
      "name": "sleep",
      "outputs": [
        {
          "internalType": "string",
          "name": "",
          "type": "string"
        }
      ],
      "stateMutability": "view",
      "type": "function",
      "constant": true
    },
    {
      "inputs": [],
      "name": "speak",
      "outputs": [
        {
          "internalType": "string",
          "name": "",
          "type": "string"
        }
      ],
      "stateMutability": "view",
      "type": "function",
      "constant": true
    }
  ],
  "bytecode": "0x60806040523480156200001157600080fd5b5060405162000d8238038062000d828339818101604052810190620000379190620001e5565b80806000908162000049919062000481565b50505062000568565b6000604051905090565b600080fd5b600080fd5b600080fd5b600080fd5b6000601f19601f8301169050919050565b7f4e487b7100000000000000000000000000000000000000000000000000000000600052604160045260246000fd5b620000bb8262000070565b810181811067ffffffffffffffff82111715620000dd57620000dc62000081565b5b80604052505050565b6000620000f262000052565b9050620001008282620000b0565b919050565b600067ffffffffffffffff82111562000123576200012262000081565b5b6200012e8262000070565b9050602081019050919050565b60005b838110156200015b5780820151818401526020810190506200013e565b60008484015250505050565b60006200017e620001788462000105565b620000e6565b9050828152602081018484840111156200019d576200019c6200006b565b5b620001aa8482856200013b565b509392505050565b600082601f830112620001ca57620001c962000066565b5b8151620001dc84826020860162000167565b91505092915050565b600060208284031215620001fe57620001fd6200005c565b5b600082015167ffffffffffffffff8111156200021f576200021e62000061565b5b6200022d84828501620001b2565b91505092915050565b600081519050919050565b7f4e487b7100000000000000000000000000000000000000000000000000000000600052602260045260246000fd5b600060028204905060018216806200028957607f821691505b6020821081036200029f576200029e62000241565b5b50919050565b60008190508160005260206000209050919050565b60006020601f8301049050919050565b600082821b905092915050565b600060088302620003097fffffffffffffffffffffffffffffffffffffffffffffffffffffffffffffffff82620002ca565b620003158683620002ca565b95508019841693508086168417925050509392505050565b6000819050919050565b6000819050919050565b6000620003626200035c62000356846200032d565b62000337565b6200032d565b9050919050565b6000819050919050565b6200037e8362000341565b620003966200038d8262000369565b848454620002d7565b825550505050565b600090565b620003ad6200039e565b620003ba81848462000373565b505050565b5b81811015620003e257620003d6600082620003a3565b600181019050620003c0565b5050565b601f8211156200043157620003fb81620002a5565b6200040684620002ba565b8101602085101562000416578190505b6200042e6200042585620002ba565b830182620003bf565b50505b505050565b600082821c905092915050565b6000620004566000198460080262000436565b1980831691505092915050565b600062000471838362000443565b9150826002028217905092915050565b6200048c8262000236565b67ffffffffffffffff811115620004a857620004a762000081565b5b620004b4825462000270565b620004c1828285620003e6565b600060209050601f831160018114620004f95760008415620004e4578287015190505b620004f0858262000463565b86555062000560565b601f1984166200050986620002a5565b60005b8281101562000533578489015182556001820191506020850194506020810190506200050c565b868310156200055357848901516200054f601f89168262000443565b8355505b6001600288020188555050505b505050505050565b61080a80620005786000396000f3fe608060405234801561001057600080fd5b506004361061004c5760003560e01c8063133a473e1461005157806317d7de7c1461006f57806350d853151461008d578063728d9b74146100ab575b600080fd5b6100596100db565b604051610066919061046e565b60405180910390f35b610077610118565b604051610084919061046e565b60405180910390f35b6100956101aa565b6040516100a2919061046e565b60405180910390f35b6100c560048036038101906100c091906105d9565b6101e7565b6040516100d2919061046e565b60405180910390f35b60606040518060400160405280600881526020017f5a2d7a2d7a2e2e2e000000000000000000000000000000000000000000000000815250905090565b60606000805461012790610651565b80601f016020809104026020016040519081016040528092919081815260200182805461015390610651565b80156101a05780601f10610175576101008083540402835291602001916101a0565b820191906000526020600020905b81548152906001019060200180831161018357829003601f168201915b5050505050905090565b60606040518060400160405280600481526020017f576f6f6600000000000000000000000000000000000000000000000000000000815250905090565b60608173__StringComparer________________________633a96fdd7826040518060400160405280600581526020017f706c616e740000000000000000000000000000000000000000000000000000008152506040518363ffffffff1660e01b81526004016102589291906106cc565b602060405180830381865af4158015610275573d6000803e3d6000fd5b505050506040513d601f19601f82011682018060405250810190610299919061073b565b8061034f575073__StringComparer________________________633a96fdd7826040518060400160405280600481526020017f6d656174000000000000000000000000000000000000000000000000000000008152506040518363ffffffff1660e01b815260040161030d9291906106cc565b602060405180830381865af415801561032a573d6000803e3d6000fd5b505050506040513d601f19601f8201168201806040525081019061034e919061073b565b5b61038e576040517f08c379a0000000000000000000000000000000000000000000000000000000008152600401610385906107b4565b60405180910390fd5b6103978361039f565b915050919050565b60606040518060400160405280600781526020017f4e6f6d2d4e6f6d000000000000000000000000000000000000000000000000008152509050919050565b600081519050919050565b600082825260208201905092915050565b60005b838110156104185780820151818401526020810190506103fd565b60008484015250505050565b6000601f19601f8301169050919050565b6000610440826103de565b61044a81856103e9565b935061045a8185602086016103fa565b61046381610424565b840191505092915050565b600060208201905081810360008301526104888184610435565b905092915050565b6000604051905090565b600080fd5b600080fd5b600080fd5b600080fd5b7f4e487b7100000000000000000000000000000000000000000000000000000000600052604160045260246000fd5b6104e682610424565b810181811067ffffffffffffffff82111715610505576105046104ae565b5b80604052505050565b6000610518610490565b905061052482826104dd565b919050565b600067ffffffffffffffff821115610544576105436104ae565b5b61054d82610424565b9050602081019050919050565b82818337600083830152505050565b600061057c61057784610529565b61050e565b905082815260208101848484011115610598576105976104a9565b5b6105a384828561055a565b509392505050565b600082601f8301126105c0576105bf6104a4565b5b81356105d0848260208601610569565b91505092915050565b6000602082840312156105ef576105ee61049a565b5b600082013567ffffffffffffffff81111561060d5761060c61049f565b5b610619848285016105ab565b91505092915050565b7f4e487b7100000000000000000000000000000000000000000000000000000000600052602260045260246000fd5b6000600282049050600182168061066957607f821691505b60208210810361067c5761067b610622565b5b50919050565b600082825260208201905092915050565b600061069e826103de565b6106a88185610682565b93506106b88185602086016103fa565b6106c181610424565b840191505092915050565b600060408201905081810360008301526106e68185610693565b905081810360208301526106fa8184610693565b90509392505050565b60008115159050919050565b61071881610703565b811461072357600080fd5b50565b6000815190506107358161070f565b92915050565b6000602082840312156107515761075061049a565b5b600061075f84828501610726565b91505092915050565b7f43616e20656174207468697320666f6f64000000000000000000000000000000600082015250565b600061079e6011836103e9565b91506107a982610768565b602082019050919050565b600060208201905081810360008301526107cd81610791565b905091905056fea26469706673582212200f2ed5a7421f5ba4ec599afd3867ec19ce95c051ab32a80544d2cec2b23fcb4864736f6c63430008110033",
  "immutableReferences": {},
  "source": "pragma solidity 0.8.17;\n\ncontract HasName{\n    string internal _name;\n\n    constructor(string memory name){\n        _name=name;\n    }\n\n    function getName() view public returns(string memory){\n        return _name;\n    }\n}\n\nabstract contract Animal{\n\n    function eat(string memory food) view virtual public returns(string memory){\n        return \"Nom-Nom\";\n    }\n\n    function sleep() view public returns(string memory){\n        return \"Z-z-z...\";\n    }\n\n    function speak() view virtual public returns(string memory){\n        return \"...\";\n    }\n}\n\nlibrary StringComparer{\n    function compare(string memory str1, string memory str2) public pure returns (bool) {\n        return keccak256(abi.encodePacked(str1)) == keccak256(abi.encodePacked(str2));\n    }\n}\n\nabstract contract Herbivore is Animal, HasName{\n    string constant PLANT = \"plant\";\n\n    modifier eatOnlyPlant(string memory food){\n        require(StringComparer.compare(food,PLANT),\"Can only eat plant food\");\n        _;\n    }\n\n    function eat(string memory food) view override public eatOnlyPlant(food) returns(string memory){\n        return super.eat(food);\n    }\n}\n\nabstract contract Carnivora is Animal, HasName{\n    string constant MEAT = \"meat\";\n\n    modifier eatOnlyMeat(string memory food){\n        require(StringComparer.compare(food,MEAT),\"Can only eat meat food\");\n        _;\n    }\n\n    function eat(string memory food) view override eatOnlyMeat(food) public returns(string memory){\n        return super.eat(food);\n    }\n}\n\nabstract contract Omnivore is Animal, HasName{\n    string constant FOOD1 = \"plant\";\n    string constant FOOD2 = \"meat\";\n\n    modifier PlantOrMeat(string memory food){\n        require(StringComparer.compare(food,FOOD1) || StringComparer.compare(food,FOOD2), \"Can eat this food\");\n        _;\n    }\n\n    function eat(string memory food) view override PlantOrMeat(food) public returns(string memory){\n        return super.eat(food);\n    }\n}\n\ncontract Cow is Herbivore{\n\n    constructor(string memory name) HasName(name){\n    }\n\n    function speak() view override public returns(string memory){\n        return \"Mooo\";\n    }\n}\n\ncontract Horse is Herbivore{\n\n    constructor(string memory name) HasName(name){\n    }\n\n    function speak() view override public returns(string memory){\n        return \"Igogo\";\n    }\n\n}\n\ncontract Wolf is Carnivora{\n    constructor(string memory name) HasName(name){\n    }\n\n    function speak() view override public returns(string memory){\n        return \"Awoo\";\n    }\n}\n\ncontract Dog is Omnivore{\n    constructor(string memory name) HasName(name){\n    }\n\n    function speak() view override public returns(string memory){\n        return \"Woof\";\n    }\n}\n\ncontract Farmer{\n    function feed(address animal, string memory food) view public returns(string memory){\n        return Animal(animal).eat(food);\n    }\n\n    function call(address animal) view public returns(string memory){\n        return Animal(animal).speak();\n    }\n}\n\n\n",
  "sourcePath": "/Users/viktoriaostrenko/Blockchain_course/lesson_15/contracts/HW_les_9_.sol",
  "compiler": {
    "name": "solc",
    "version": "0.8.17+commit.8df45f5f.Emscripten.clang"
  },
  "schemaVersion": "3.4.11",
  "updatedAt": "2023-02-12T19:58:28.903Z",
  "networkType": "ethereum",
  "devdoc": {
    "kind": "dev",
    "methods": {},
    "version": 1
  },
  "userdoc": {
    "kind": "user",
    "methods": {},
    "version": 1
  }
}